:020000040800F2
:1000000028560220A5020008A35700087D4E0008CC
:10001000A1570008CD080008E9860008000000008C
:10002000000000000000000000000000E1010008E6
:1000300027180008000000003D020008556D000868
:10004000BF020008BF020008BF020008BF0200088C
:10005000BF020008BF020008BF020008BF0200087C
:10006000BF020008BF020008BF020008BF0200086C
:10007000BF02000841170008BF020008BF020008C5
:100080004D170008BF020008BF020008BF020008A9
:10009000BF020008BF020008BF020008BF0200083C
:1000A000BF020008596E0008BF020008BF02000826
:1000B000656E0008716E00087D6E0008BF020008C2
:1000C000BF020008BF020008BF020008BF0200080C
:1000D000BF020008E185000825860008BD860008EB
:1000E000BF020008BF020008BF020008BF020008EC
:1000F000BF020008456F0008BF020008BF020008E9
:10010000BF020008BF020008B16E0008BF0200086D
:10011000397C0008BF020008BF020008D56E000845
:10012000BF020008BF020008BF020008BF020008AB
:10013000BF020008BF020008BF020008BF0200089B
:10014000BF020008BF020008BF020008BF0200088B
:10015000BF020008BF020008BF020008C9860008ED
:10016000BF020008BF020008BF020008BF0200086B
:10017000BF020008BF020008BF020008BF0200085B
:10018000BF020008BF020008E17C0008BF020008AF
:10019000BF020008BF020008BF020008BF0200083B
:1001A000BF020008BF020008BF020008BF0200082B
:1001B000BF020008BF020008BF020008BF0200081B
:1001C000BF020008BF020008DFF810D000F0CCFA30
:1001D000004800472D930008AFF300802856022006
:1001E0002D4B19680868B0E8F04F80F30988BFF319
:1001F0006F8F4FF0000080F31188704700000000FF
:1002000008480068006880F308884FF0000080F319
:10021000148862B661B6BFF34F8FBFF36F8F00DFF4
:1002200000BF00BF08ED00E0DFF80C00016841F4FA
:1002300070010160704700BF88ED00E0EFF30980B6
:10024000BFF36F8F144B1A681EF0100F08BF20ED1C
:10025000108A20E9F04F106009B44FF0500072B6D8
:1002600080F31188BFF34F8FBFF36F8F62B60BF02F
:1002700077FA4FF0000080F3118809BC196808680C
:10028000B0E8F04F1EF0100F08BFB0EC108A80F3FA
:100290000988BFF36F8F704710000020EFF30580CF
:1002A000704700000648804706480047FEE7FEE723
:1002B000FEE7FEE7FEE7FEE7FEE7FEE7FEE7FEE716
:1002C000496E0008C90100082DE9F05F05460020CD
:1002D00092469B4688460646814640241BE02846B7
:1002E00041464746224600F09AF953465A46C01AFC
:1002F000914110D311461846224600F081F92D1A7B
:1003000067EB01084F4622460120002100F078F9F2
:1003100017EB00094E41201EA4F10104DFDC484622
:1003200031462A464346BDE8F09F10B5431A934232
:1003300009D28318881803E010F8011D03F8011D85
:10034000521EF9D210BD40EA01039B0703D009E019
:1003500008C9121F08C0042AFAD203E011F8013BB1
:1003600000F8013B521EF9D210BDD2B201E000F8F4
:10037000012B491EFBD270470022F6E710B5134649
:100380000A4604461946FFF7F0FF204610BD2DE946
:10039000FE4F81EA030404F0004421F00041009480
:1003A0004FF0000B23F0004350EA01045ED052EA04
:1003B00003045BD0C3F30A54C1F30A552C44A4F2DE
:1003C000F3340194A0FB0254C1F3130141F48011F2
:1003D000C3F3130343F4801301FB024400FB034EF9
:1003E000840A970A44EA815447EA8357A4FB0768C2
:1003F00002958D0A05FB07854FEA932C04FB0C54EC
:100400002705029D4FEA065847EA1637B5EB08055F
:100410006EEB070C870E920E47EA811742EA8312B1
:10042000A7FB0201B6EB0B0164EB00042B0D43EAC2
:100430000C335E1844EB1C50DA465146E7FB0201D0
:10044000C5F313044FEA0B3343EA14534FEA043263
:10045000019C43EA0603A4F10C040294009CCDE93C
:1004600000B400F032F903B0BDE8F08F002001467F
:10047000F9E72DE9F04D81EA030404F0004B21F087
:10048000004514464FF0000A23F0004150EA0502EF
:1004900020D054EA01021DD0C5F30A570246C5F325
:1004A0001303C1F31300C1F30A5640F4801543F45B
:1004B0008013A7EB0608101BD64608F2FD3873EB35
:1004C000050002D308F1010801E092185B41B8F180
:1004D000000F03DA00200146BDE8F08D00204FF444
:1004E0008011064684460EE0171B73EB050705D303
:1004F000121B63EB050306434CEA010C49084FEA63
:10050000300092185B4150EA0107EDD152EA030036
:1005100012D082EA040083EA0501084305D0101BCB
:10052000AB4106D20122002306E000224FF0004337
:1005300002E06FF0010253101AEB06004CEB085179
:1005400010EB0A0041EB0B01BDE8F04D00F0AEB836
:100550000EB5C10F80EAE0700844CA07002140F2DE
:1005600033438DE80E000A460B4600F0AEF803B0A8
:1005700000BD00F0004230F000400AD0C10D01F58E
:100580006071C0F3160042EA0151C20840071143EE
:10059000704700200146704730B5041E71F1000419
:1005A00004DB4FF00044404264EB0101141E73F180
:1005B000000405DB1C464FF00043524263EB04038A
:1005C0008B4208BF824230BD01F0004330B421F0BD
:1005D000004150EA010206D00A0DA2F56072C1F393
:1005E0001301002A02DC30BC00207047440F44EAAB
:1005F000C104C100E01830BC00EBC25000F01FB8CD
:10060000202A04DB203A00FA02F1002070479140D2
:10061000C2F1200320FA03F3194390407047202AC7
:1006200004DB203A21FA02F00021704721FA02F39C
:10063000D040C2F12002914008431946704700297A
:10064000A8BF7047401C490008BF20F00100704758
:1006500010B4B0FA80FC00FA0CF050EA010404BFB8
:1006600010BC704749B1CCF1200421FA04F411FA0E
:100670000CF118BF012121430843A3EB0C01CB1D52
:100680004FEA00614FEA102042BF002010BC7047C3
:1006900000EBC35010440029A4BF10BC7047401C9D
:1006A000490008BF20F0010010BC704710B5141EAF
:1006B00073F1000408DA401C41F1000192185B411B
:1006C0001A4301D120F0010010BD2DE9F04D9246F2
:1006D0009B4611B1B1FA81F202E0B0FA80F2203209
:1006E0009046FFF78DFF04460F4640EA0A0041EAB4
:1006F0000B0153465A46084313D0114653EA0100F2
:1007000019D0C8F140025046FFF789FF05460E4652
:10071000504659464246FFF773FF084305D0012073
:1007200004E020463946BDE8F08D0020054346EA46
:10073000E0762C4337430A986305E40AA0EB0800EF
:100740000022FD0A44EA47540A3002D5002001463F
:10075000E9E7010510196941DDE90845001969411A
:10076000BDE8F04DA2E70000064C074D06E0E0684A
:1007700040F0010394E8070098471034AC42F6D3E8
:10078000FFF726FDD8BE0008F8BE000870B58D182A
:1007900010F8014B14F0030201D110F8012B2311C2
:1007A00006D110F8013B03E010F8016B01F8016B72
:1007B000521EF9D1ABB110F8012B04F00C048A1AC7
:1007C0000C2C03D0A2EB84129B1C08E010F8014B08
:1007D000A2EB0422F8E712F8014B01F8014B5B1E73
:1007E000F9D5A942D4D3002070BD000070B52DED1D
:1007F000028B2E4D2E4C95ED050A84ED020A022047
:1008000009F08CF908F076FB2889800411D594ED65
:100810000A8A284D02E002200AF07EFE94ED0A0AC0
:1008200030EE480AB0EEC00A10EE100AA842F2DB21
:100830002BE008F025FD204D04E008F021FD02200A
:100840000AF06AFE287A0028F7D128680028F4D137
:1008500008F09CFB194880ED010A9FED190A84ED10
:10086000030A042009F05AF994ED0A8A154D02E0B2
:1008700002200AF051FE94ED0A0A38EE400AB0EE6A
:10088000C00A10EE100AA842F2DB08F0A3F908F043
:1008900031FB00F01DF8FA200AF03EFE0A4881788C
:1008A000491C8170BDEC028B70BD0000B451022068
:1008B000481600200000F041185202209416002033
:1008C00000401C450000204124020020FEE70000FB
:1008D00010B5002009F022F904489FED030A80EDCD
:1008E000010A80ED000A10BD00000000481600203B
:1008F00004480178012902D00121017070470021CC
:100900000170704780160020F0B51C4890F800C0B8
:1009100041788278BCF1600FC37804794579867993
:10092000C779407A0FD160290DD1602A0BD1602B95
:1009300009D1602C07D1602D05D1602E03D1602F25
:1009400001D1602803D0BCF1600F02D013E0012078
:10095000F0BD60290FD1602A0DD1602B0BD1602C26
:1009600009D1602D07D1602E05D1602F03D16028F9
:1009700001D00220F0BD0320F0BD000032020020B3
:100980002DE9F05F0024002600270025A246DFF8AD
:100990008883DFF888B31BF80A0018B908F8040048
:1009A000641CE4B2022803D108F80400641CE4B219
:1009B000042803D108F80400641CE4B20A2803D117
:1009C00008F80400641CE4B20B2803D108F8040002
:1009D000641CE4B20C2803D108F80400641CE4B2DF
:1009E0000D2803D108F80400641CE4B2142803D1D4
:1009F00008F80400641CE4B2152803D108F80400C8
:100A0000641CE4B2172803D108F80400641CE4B2A3
:100A1000182803D108F80400641CE4B21E2803D18E
:100A200008F80400641CE4B21F2803D108F804008D
:100A3000641CE4B2202803D108F80400641CE4B26A
:100A4000222803D108F80400641CE4B2282803D14A
:100A500008F80400641CE4B2292803D108F8040053
:100A6000641CE4B22A2803D108F80400641CE4B230
:100A7000102804D108EB06018870761CF6B2052810
:100A800004D108EB06018870761CF6B2062804D162
:100A900008EB06018870761CF6B2072804D108EB33
:100AA00006018870761CF6B2112804D108EB060105
:100AB0008870761CF6B2192804D108EB06018870FC
:100AC000761CF6B21B2804D108EB06018870761C50
:100AD000F6B2232804D108EB06018870761CF6B222
:100AE000242804D108EB06018870761CF6B227286A
:100AF00004D108EB06018870761CF6B22E2804D1CA
:100B000008EB06018870761CF6B2312804D108EB98
:100B1000070108717F1CFFB2382804D108EB0701D8
:100B200008717F1CFFB23B2804D108EB0701087154
:100B30007F1CFFB24F2804D108EB070108717F1C0E
:100B4000FFB23C2804D108EB070108717F1CFFB2FB
:100B5000442804D108EB070108717F1CFFB2462826
:100B600004D108EB070108717F1CFFB24E2804D1A5
:100B700008EB070108717F1CFFB2582804D108EB6D
:100B8000070108717F1CFFB2592804D108EB070147
:100B900008717F1CFFB25A2804D108EB07010871C5
:100BA0007F1CFFB2352804D108EB050188716D1C4C
:100BB000EDB2472804D108EB050188716D1CEDB238
:100BC000362804D108EB050188716D1CEDB2372879
:100BD00004D108EB050188716D1CEDB23D2804D1EC
:100BE00008EB050188716D1CEDB23F2804D108EBBC
:100BF000050188716D1CEDB2402804D108EB050198
:100C000088716D1CEDB2412804D108EB0501887193
:100C10006D1CEDB2482804D108EB050188716D1CEC
:100C2000EDB24A2804D108EB050188716D1CEDB2C4
:100C30004B2804D108EB050188716D1CEDB25228D8
:100C400004D108EB050188716D1CEDB2532804D165
:100C500008EB050188716D1CEDB2542804D108EB36
:100C6000050188716D1CEDB2552804D108EB050112
:100C700088716D1CEDB25B2804D108EB0501887109
:100C80006D1CEDB25D2804D108EB050188716D1C67
:100C9000EDB25F2804D108EB050188716D1CEDB23F
:100CA0004FF000091E4B09EB49011BF80A2013F80D
:100CB0003100824205D103EBC10102220A7505F021
:100CC00087FD09F1010909F0FF09B9F1CC0FE9D35A
:100CD0000AF1010A0AF0FF0ABAF1080FFFF45BAE4D
:100CE0000A250D4E08360024305D602804D1705D61
:100CF000602801D004F056FD641CE4B2082CF3D344
:100D00006D1CEDB2122DEED3064800F00FF8BDE8D1
:100D1000F05F054800F00AB82A020020B200002067
:100D20004C02002008B20120A01501202DE9F0415D
:100D300000F510436121C3F80413002200264FF68A
:100D4000FF7415E000EB820101F51041C1F828663F
:100D5000002102EB421505EB821500EB850502E050
:100D600045F82140491CD3F804738F42F8DC521C2B
:100D7000D3F804139142E5DC0021DFF84CC0134F97
:100D8000DFF84C8019E0002201EB411404EB8114E0
:100D900000EB84050CE01CF80140144404EB44040F
:100DA00007EBC40617F83440B68945F82460521C96
:100DB00018F801409442EEDC491CD3F804238A421F
:100DC000E1DCBDE8F0810000E51500204C020020C8
:100DD000841500202DE9F04F2DED048B89B09FED97
:100DE000FE8AFE48FE4C018804F11C000890002990
:100DF00011D1FA4901200880A4F5C8700178207942
:100E000008F0E6F800EB4001F648182200EBC101BB
:100E10000898FFF78AFAF148801E4078012801D02F
:100E2000D0B367E0022008F079FEEF4D208A95EDFF
:100E30000A0AF0EEC00A00EE100AB8EE400A9FED72
:100E4000EB1AEB49EB4820EE010AEB4EF4EEC00A38
:100E5000F1EE10FA26DBE14B00229B1E5A7022892C
:100E6000920505D40968182908D10068182805D109
:100E7000D4ED030A96ED000A08F046FD94ED030A4E
:100E8000D4ED090AB4EE600AF1EE10FA05D19FED37
:100E9000DB0A85ED020A2DE018E09FEDD90A85ED09
:100EA000020A27E02289920505D40968182908D189
:100EB0000068182805D1D4ED030A96ED000A08F061
:100EC00023FD94ED050A85ED020A13E0207E08F06B
:100ED000B7FA207840070DD407F0A8FE50B120786B
:100EE000010607D4202805D0C64981ED008A40F0CC
:100EF00004002070BA48007841077DD5B84C20F036
:100F000004002070A4F5C871B4480088401E51F850
:100F100020009FEDBD9BFF286FD008F037F82046DA
:100F2000D0ED090A08F032FD10EE100AFFF721FBA0
:100F300041EC100B07F0FAFB53EC192B51EC100BA2
:100F4000FFF72AFB15D32546D5ED090A95ED030ACF
:100F500008F01CFD10EE100AFFF70BFB41EC100B24
:100F600007F0E4FB53EC192B51EC100BFFF714FBCB
:100F700004D29A490120891E4870FAE20024288987
:100F8000A34F40059FEDA39ADFF88C92DFF88CB257
:100F9000DFF88C827ED59FEDA30A934E86ED020A80
:100FA000D6ED0A8ADFF880A202E002200AF0B4FA45
:100FB00096ED0A0A30EE680AB0EEC00A10EE100A8A
:100FC0005045F2DB07F0E2FF8548F0EE408AD0EDB5
:100FD000090A90ED030A08F0D9FC38EE800A8BED7F
:100FE000000A9BED000A10EE100AB84209DD9BEDE5
:100FF000000A30EE490A01E05EE35EE38BED000A91
:101000000BE09BED000A10EE100A484505D99BED58
:10101000000A30EE090A8BED000ADBED008A03209E
:1010200008F07CFD824E4FF4FA7ADFF80092814F8F
:101030007542BEE0641C07F0A9FF08F021F998F89A
:101040000900012841D107F0A1FFF0EE400AB0EEFF
:10105000680A08F09BFCB0EEC00A10EE100AB84215
:1010600033DA544531DBD8F8000080072AD001205C
:1010700008F054FD99F8000088B90120294608F0CD
:101080004BFA0220294608F047FA0320314608F0BF
:1010900043FA00E0DAE10420314608F03DFA99F81D
:1010A000000001280ED1294608F036FA0220294610
:1010B00008F032FA0320314608F02EFA04203146B7
:1010C00008F02AFA01200AF027FA98F80900012806
:1010D00040D107F05BFFF0EE400AB0EE680A08F07E
:1010E00055FCB0EEC00A10EE100AB84232DA544590
:1010F00030DBD8F8000010F0C00F28D0012008F035
:101100000DFD99F8000078B90120314608F004FA85
:101110000220314608F000FA0320294608F0FCF9C5
:101120000420294608F0F8F999F8000001280ED1AA
:10113000314608F0F1F90220314608F0EDF90320BC
:10114000294608F0E9F90420294608F0E5F90120CC
:101150000AF0E2F998F80900012812D1D8F8000045
:1011600010F0180F0DD007F011FFF0EE400A9BEDC4
:10117000000A08F00BFCB0EEC00A10EE100AB842EC
:1011800028DB02200AF0C8F9AC4223DA98F80800FC
:1011900078B9294800690A280BDA284800690A2822
:1011A00007DA274800690A2803DA264800690A286E
:1011B00010DB07F0EBFE0A48F0EE400A90ED090A5A
:1011C00008F0E4FBB0EEC00A10EE100A1E49884297
:1011D0003FF730AF002439E0000000004602002055
:1011E000B45102204C020020481600203333333F14
:1011F0008C16002090160020AC11012000C05A452A
:1012000000401C458416002000000000000024401F
:10121000000034430000B443000034C3941600209F
:10122000185202200080BB4400004041801600207C
:1012300024FAFFFF0000D841DC1301200C14012028
:10124000F4130120241401200000A04008F018F835
:1012500098F8080000287CD1FE491C2201A8FFF75D
:1012600064F8FC48B6EE000A80ED010AFA48FB4932
:10127000F3EE0E8A90ED030AD0ED090A30EE600A13
:1012800010EE100A884204D010EE100AF449884289
:1012900006D107F07BFE30EE280A8BED000A0FE046
:1012A00010EE100AEF49884204D010EE100AEE4901
:1012B000884205D107F06AFE30EE680A8BED000A1D
:1012C000032008F02BFCABE0641C07F05FFE07F086
:1012D000D7FF98F80900012841D107F057FEF0EE3A
:1012E000400A9BED000A08F051FBB0EEC00A10EE78
:1012F000100AB84233DA544531DBD8F800008007D1
:101300002AD0012008F00AFC99F8000078B90120E1
:10131000294608F001F90220294608F0FDF80320CB
:10132000314608F0F9F80420314608F0F5F899F84C
:101330000000012810D1294608F0EEF802202946C5
:1013400008F0EAF80320314608F0E6F804203146B8
:1013500000E00EE108F0E0F801200AF0DDF898F86E
:101360000900012840D107F011FEF0EE400A9BED84
:10137000000A08F00BFBB0EEC00A10EE100AB842EB
:1013800032DA544530DBD8F8000010F0C00F28D016
:10139000012008F0C3FB99F8000078B9012031461C
:1013A00008F0BAF80220314608F0B6F803202946C2
:1013B00008F0B2F80420294608F0AEF899F80000C9
:1013C00001280ED1314608F0A7F80220314608F076
:1013D000A3F80320294608F09FF80420294608F0C6
:1013E0009BF801200AF098F898F80900012812D11A
:1013F000D8F8000010F0180F0DD007F0C7FDF0EE80
:10140000400A9BED000A08F0C1FAB0EEC00A10EEE7
:10141000100AB84214DB02200AF07EF8AC420FDA60
:1014200007F0B4FDF0EE400A9BED000A08F0AEFABA
:10143000B0EEC00A10EE100A8C4988423FF744AF64
:1014400084481C2201A9FEF770FF92E0042008F0F6
:1014500065FB87491C2201A8FEF767FF854ED6ED84
:10146000068A8348B7EE000A80ED000A80ED018A03
:1014700080ED028A96ED020A86ED030A96ED030AD4
:10148000DFED7D0A20EE200A86ED060A07F07EFDDC
:10149000F0EE409AD5ED090A95ED030A08F076FAC8
:1014A00039EE800A8BED010A9BED010A10EE100A5D
:1014B000B84206DD9BED010A30EE490A8BED010AC8
:1014C0000BE09BED010A10EE100A484505D99BED93
:1014D000010A30EE090A8BED010A9BED019A634F78
:1014E00030E0641C07F0CCFE98F8090001281FD1F9
:1014F000D8F8000010F03C0F1AD007F047FDF0EECE
:10150000400A9BED010A08F041FAF0EEC09AD5EDD1
:10151000030A9BED010A08F039FAB0EEC00ADFEDCC
:10152000570A20EE200AF4EEC09AF1EE10FA17D313
:1015300040F2EE20844202DB98F8080080B90220D5
:1015400009F0EAFF07F022FDF0EE400AB0EE490A8A
:1015500008F01CFAB0EEC00A10EE100AB842C0DC67
:1015600043481C2201A9FEF7E0FEC6ED068A07F0FB
:1015700023FB43490120487007F01EFB022008F0BE
:10158000CDFA354C1822211D04F13400FEF7CDFEB2
:1015900008991822201DFEF7C8FE364D94ED050A65
:1015A00085ED020A364A921C1088411C1180A4F570
:1015B000C87111F82010207907F00AFD00EB4001F6
:1015C0003048182200EBC1010898FEF7AEFE207FDC
:1015D000142819D01B2817D0232815D03C2813D045
:1015E000442811D04B280FD094ED030AD4ED090AFA
:1015F000B4EE600AF1EE10FA09D094F830008007DA
:1016000005D5002020850DE0052020850AE0B4EEF8
:10161000600AF1EE10FA05D194F83000800701D588
:101620000E20208594F83000810703D5A16841F48D
:101630008061A160C143890703D1A16821F4806161
:10164000A16094ED0F0AD4ED030AB4EE600AF1EE46
:1016500010FA19E074140120B45102200000B4C241
:1016600000008743000087C30000B4420000A04090
:1016700090140120481600208FC2F53CCDCC4C3E82
:10168000440200204C02002009D12189890406D59A
:10169000218CC90403D5800701D528202082234846
:1016A0000021017180ED008A07F024FC85ED0A8A93
:1016B000207820F0040020700BE01D4880ED028AA5
:1016C000FFF706F91B4901204870881C8178491CE6
:1016D0008170194C2078000622D5164901204870E7
:1016E000891C0888421C0A80A4F5C87111F82010D2
:1016F000207907F06DFC00EB40011048182200EB48
:10170000C1010898FEF711FE207820F080002070BB
:10171000022008F003FA064894ED050A80ED020A5B
:1017200009B0BDEC048BBDE8F08F000084160020EA
:101730004816002044020020B45102204C02002030
:10174000014800F01DBB0000EC1C0020014800F027
:1017500017BB00004C1D00200168CAB2103A1823C4
:10176000B2FBF3F2064B9B5CC365032A6FF30901DE
:1017700002D9091D816500E08165806D7047000018
:1017800018BD0008014610B500208A6A4FF0C074E9
:101790008B69002B0ED0B3F5005F1AD062B3012A1B
:1017A0002AD0022A28D0032A03D1C96AC90100D548
:1017B000012010BD1AB1012A06D0022AF9D1C96A46
:1017C000C901F6D5012010BDC96AA142FBD1012093
:1017D00010BD52B1012A0AD0022A06D0032AF7D13D
:1017E000C96AA142F4D1012010BD012010BDC96A0F
:1017F000C901FBD5012010BD012010BD30B5046822
:10180000256825F480252560046863608368402B83
:1018100004D0036899600068C26030BD03689A60B4
:101820000068C16030BD704710B503F013FCA02004
:1018300003F0D4FB03F05AFC08B1012400E00024BB
:1018400003F06EFB03F02CFC204610BD70B50024A5
:1018500042F2107505E0641CA4B2AC4201D3012031
:1018600070BDFFF7E1FF0028F5D170BD70B5D2491A
:101870003D22D248FEF759FDCF4D3D352878CF4C5B
:10188000403404F8030C687804F8020CA87804F8D3
:10189000010CE8782070287960706879A070A879C8
:1018A000E070E8792071287A6071687AA071A87A6E
:1018B000E071E87A3D3D2072C14EE660B0152061CE
:1018C0000C216161BD4802F0FFFA6069403C0028CC
:1018D0007ED004287DD008287CD02068016A21F4BD
:1018E00020410162606D002875D0042874D008285A
:1018F00073D02068016A01623D22B048AE495C3075
:10190000FEF713FD15F83D0FAC4C9C3404F8030CA6
:10191000687804F8020CA87804F8010CE8782070C4
:10192000287960706879A070A879E070E8792071F2
:10193000287A6071687AA071A87AE071E87A3D3DF2
:101940002072E6604FF40070206108216161A4F10B
:10195000400002F0B9FA6069403C00287ED00428BB
:101960007DD008287CD02068016A21F420410162E2
:10197000606D002875D0042874D0082873D02068C2
:10198000016A01623D228D488B49B830FEF7CDFCDB
:1019900015F83D0F894CF83404F8030C687804F806
:1019A000020CA87804F8010CE8782070287960709F
:1019B0006879A070A879E070E8792071287A607160
:1019C000687AA071A87AE071E87A3D3D207205E05E
:1019D0006DE072E077E07CE085E088E0794EE660DB
:1019E0000220206100216161A4F1400002F06CFA44
:1019F0006069403C002870D004286FD008286ED061
:101A00002068016A21F420410162606D002868D0DD
:101A1000042867D008286ED02068016A01623D2240
:101A200065496948FEF781FC15F83D0F664C403466
:101A300004F8030C687804F8020CA87804F8010C88
:101A4000E8782070287960706879A070A879E070D3
:101A5000E8792071287A6071687A05E04DE052E0FB
:101A600057E05CE05FE062E0A071A87AE071E87A9C
:101A70002072E6600120206104216161524802F079
:101A800023FA6069403C58B304287CD008286DD004
:101A90002068016A21F420410162606D60B304286E
:101AA0006FD008286ED02068016A016270BD20687E
:101AB000016A21F00A01016214E72068016A21F03D
:101AC000A00101620EE72068016A21F42061016231
:101AD00008E72068016A01620EE72CE031E036E099
:101AE00049E03AE03DE02068016A016204E72068CD
:101AF000016A016200E73AE051E02068016A21F0E2
:101B00000A01016234E72068016A21F0A001016244
:101B10002EE72068016A21F42061016228E720682D
:101B2000016A01622EE72068016A01622AE72068E3
:101B3000016A016226E72068016A21F00A01016258
:101B400063E72068016A21F0A00101625DE7206877
:101B5000016A21F42061016257E72068016A01628D
:101B60005DE72068016A016259E70CE011E0206836
:101B7000016A016253E72068016A21F00A010162EB
:101B80008BE710E013E02068016A21F0A0010162F8
:101B900083E72068016A21F4206101627DE7206803
:101BA000016A016270BD2068016A016270BD20682F
:101BB000016A016270BD000088190020D80F012061
:101BC0000004024000100240EC10012072B6FEE753
:101BD000F0B589B00746202101A8FEF7CDFB00240F
:101BE000114D01AE114839462A5D07F0D3F846F889
:101BF0002400641CE4B2082CF4D3019C00210C489E
:101C00000170012256F82230A34201DA1C4602700C
:101C1000521CD2B2082AF5D3007839462A5C05480E
:101C200007F0B8F809B0F0BDB200002008B20120FA
:101C300024020020A015012010B52DED028BB0EE7E
:101C4000408A184890ED010A174880ED020A1749AA
:101C500091ED000A80ED060A154908F047F810EEEC
:101C6000100A1449DFED140A884202DBB0EE600A64
:101C700006E010EE100A1149884201D39FED100AC8
:101C8000F0EEC81A81EEA01A21EE000A0D4878EE97
:101C9000400AC0ED000A38EE000A80ED010ABDECF2
:101CA000028B10BD18520220E4140120841600207B
:101CB000581401200000484200004842000048C279
:101CC000000048C2481600202DE9F0410446A76DE7
:101CD00000F0F0FA054694F835000026022806D0F8
:101CE0008020606584F834600120BDE8F0812068C0
:101CF000016821F0160101602068416921F080012E
:101D00004161206C08B9A06C20B12068016821F005
:101D1000080101602068016821F0010101600BE009
:101D200000F0C8FA401B052806D920203434206270
:101D3000032060702670D8E720680068C007EFD1E4
:101D400034343F2094F828108840B8600120607037
:101D500026700020C9E790F83510022903D08021B1
:101D6000416501207047052180F835100068016841
:101D700021F00101016000207047406D70470000B4
:101D80002DE9F84304464FF00009CDF800904FF4D8
:101D900016516E480068B0FBF1F7A56D2E68082259
:101DA00094F85C0002FA00F1314210D0206801681A
:101DB00049070CD5016821F00401016094F85C002A
:101DC00002FA00F1A960606D40F00100606594F8CE
:101DD0005C104FF0010808FA01F0304208D0216889
:101DE0004969090604D5A860606D40F0020060658D
:101DF00094F85C1004208840304208D021680968BB
:101E0000890704D5A860606D40F00400606594F80F
:101E10005C1010208840304220D0216809680907F2
:101E20001CD5A8602068016849030CD50068000330
:101E300004D4216C91B1204688470FE0A16C69B1B0
:101E4000204688470AE00168C90503D4016821F0EB
:101E500008010160216C09B12046884794F85C10A4
:101E60002020884030424CD021680968C90648D5F6
:101E7000A86094F8350005280BD020680168490354
:101E800030D50068000328D4616C51B320468847E0
:101E900037E02068016821F016010160206841697F
:101EA00021F080014161206C08B9A06C20B120684C
:101EB000016821F00801016094F85C103F2088401F
:101EC000A86084F8358084F83490216D00293BD0D7
:101ED00001B02046BDE8F0430847E16B09B1204658
:101EE00088470EE00168C90507D4016821F0100198
:101EF000016084F8358084F83490E16B09B12046A4
:101F00008847606D00281FD0606DC00714D0052081
:101F100084F835002068016821F001010160009813
:101F2000401C0090B84203D820680068C007F6D172
:101F300084F8358084F83490E16C002904D001B035
:101F40002046BDE8F0430847BDE8F8830C000020B8
:101F50002DE9F041044600F0ADF905465CB10220E0
:101F600084F83500002684F834602068016821F088
:101F7000010101600DE00120BDE8F08100F09AF957
:101F8000401B052805D920206065032084F8350012
:101F9000F2E720680068C007F0D121680A6820488D
:101FA0000240D4E901031843D4E903352B43184315
:101FB00063691843A3691843E3691843236A184304
:101FC0001043626A042A03D1D4E90B231A43104355
:101FD00008602068406920F00700656A29460543CB
:101FE000012704290DD1A06A0543E06A48B12046C3
:101FF000FFF7C8FB28B14020606584F835700120E8
:10200000BAE7206845612046FFF7A6FB94F85C20FC
:102010003F2191408160666584F835700020ABE710
:102020003F8010F02DE9F04104460025A66D94F89C
:10203000340001280DD0012084F8340094F8357064
:102040000020012F07D084F8340002252846BDE87F
:10205000F0810220FBE7022784F835706065204696
:10206000FFF7CCFB94F85C103F208840B0602068FC
:10207000016841F0160101602068416941F080016A
:102080004161206C20B12068016841F008010160C5
:102090002068016841F001010160D7E72DE9F84FA0
:1020A0000022DFF8B09103274FF0010809F1040A7C
:1020B0004FF00F0CA9F1040B08FA02F50B682B4046
:1020C000AB426ED10C7904F00304012C01D0022C38
:1020D00015D18668540007FA04FE26EA0E06D1F8E8
:1020E0000CE00EFA04FE4EEA060EC0F808E0446862
:1020F000AC430D79C5F300159540254345600C7937
:10210000E443A40708D0C568540007FA04F6B543B1
:102110008E68A6402E43C6600C7904F00304022C9E
:1021200011D1D40800EB8406356A5407E40E0CFA8A
:1021300004FE25EA0E05D1F810E00EFA04FE4EEA80
:10214000050EC6F820E00568540007FA04F6B5430A
:102150000E7906F00306A6402E4306604C6814F480
:10216000403F71D03C4C256845F48045256024688B
:1021700004F480440094394C22F003052E19D6F85B
:10218000085894074FEA147E0CFA0EF4A543344C19
:10219000A04201D100242EE0324CA04202D1012401
:1021A00029E051E0304CA04201D1022423E02F4C21
:1021B000A04201D103241EE02D4CA04201D10424F1
:1021C00019E02C4CA04201D1052414E02A4CA04275
:1021D00001D106240FE0294CA04201D107240AE0D6
:1021E000274CA04201D1082405E0264CA04201D191
:1021F000092400E00A2404FA0EF42C43C6F8084827
:10220000D9F800409C434D68ED0200D51C43C9F845
:102210000040DAF800409C434D68AD0200D51C43F5
:10222000CAF80040DBF800409C434D68AD0300D580
:102230001C43CBF80040074D083D2C689C434E687A
:10224000F60300D51C432C60521C102AFFF434AF57
:10225000BDE8F88F083C014044380240003001409E
:10226000000002400004024000080240000C02404E
:10227000001002400014024000180240001C0240FE
:1022800000200240002402400069084201D00120E1
:10229000704700207047426921EA02030A4043EA7E
:1022A000024181617047002A01D0816170470904B1
:1022B000816170470148806870470000000000207D
:1022C0000248816802781144816070470000002054
:1022D00010B5032000F08CF80F2000F005F800F096
:1022E0003DF8002010BD000000B587B00146002277
:1022F0002D2000F05DF82D2000F04CF81348016807
:1023000041F480710160006800F48070009001A9C0
:1023100002A800F0D7FB00F0F9FB40000C49B0FB2D
:10232000F1F1491E0C480B4A026040F2E732C260EC
:10233000416000210161816000F0E6FE10B10120E2
:1023400007B000BD044800F0C7FFF9E7403802407D
:1023500040420F0000200040AC1D002082B00C481D
:10236000016841F080510160006800F080500190E8
:102370000748001D016841F480410160006800F4D5
:102380008040019000220F21901E02B000F010B892
:1023900040380240002809DB012100F01F02914073
:1023A0004009800000F1E020C0F8001170470000F3
:1023B000F0B40D460D4B1B68C3F30223C3F10704B1
:1023C000042C00D90424191D072901D2002300E0A0
:1023D000DB1E012606FA04F1491E294099409E4061
:1023E000761E16403143F0BC06F090B90CED00E0CB
:1023F00000F00701054A10684FF6FF03184040EA55
:102400000120034908431060704700000CED00E014
:102410000000FA05F8B51948016841F080510160E3
:10242000006800F080500090154C206840F4803027
:102430002060FFF73FFF05464FF47A7606E0FFF78E
:1024400039FF401BB04201D90320F8BD6068C003CA
:10245000F5D5206840F400302060FFF72BFF0546DB
:1024600006E0FFF727FF401BB04201D90320F8BD6B
:1024700060688003F5D50020F8BD000040380240B8
:10248000007000402DE9F84F044600250026DFF8D3
:1024900078A42078C0070ED0DAF8000020F40000FD
:1024A000CAF80000DAF80000616B0843CAF80000BF
:1024B000606B00B901252068DFF8508400030ED559
:1024C000D8F80000E16B20F440100843C8F8000081
:1024D000E06BB0F5801F00D1012500B9012620680E
:1024E000C0020ED5D8F80000216C20F4400008434B
:1024F000C8F80000206CB0F5800F00D1012500B9AC
:1025000001262068C10100D5012580065DD5FE4861
:102510003830016841F080510160006800F080505F
:102520000090DFF8EC93D9F8000040F48070C9F80F
:102530000000FFF7BFFE074607E0FFF7BBFEC01B2A
:10254000642802D90320BDE8F88FD9F80000C0053F
:10255000F3D5EE4F1C3F386800F4407020B3218E55
:1025600001F4407181421FD0386820F4407039680E
:1025700041F480313960396821F480313960386044
:102580003868C00710D0FFF795FE814641F2883BBE
:1025900007E0FFF78FFEA0EB0900584501D90320A3
:1025A000D1E738688007F4D5206BC0F301210329F7
:1025B0007ED0DAF8000020F4F810CAF8000038687D
:1025C000218EC1F30B01084338602078C0060BD57B
:1025D000D8F8000020F08070C8F80000D8F800009B
:1025E000A16B0843C8F8000020884104C94805D5FC
:1025F0000168626E21F440311143016021880904B1
:1026000005D50168A26E21F44021114301602168C3
:10261000C90305D50168E26E21F440111143016040
:102620002168890305D50168226F21F44001114317
:1026300001602178490605D50168626C21F003012B
:10264000114301602178090605D50168A26C21F0CB
:102650000C01114301602188C90505D50168E26CB0
:1026600021F03001114301602188890505D50168F9
:10267000226D21F0C001114301602188490505D573
:102680000168626D21F440711143016021880905E0
:1026900005D50168A26D21F44061114301602188D4
:1026A000C90407D50168E26D21F44051114300E0EF
:1026B00046E001602188890405D50168226E21F475
:1026C0004041114301602168490205D50168A26FAC
:1026D00021F080611143016021684FF00069890297
:1026E00009D50168E26F21F0006111430160E16FDB
:1026F000494500D1012621680A0700D50126490372
:1027000005D50168626F21F04071114301602168B5
:10271000090206D50168D4F8802021F080511143C8
:102720000160794F083F012D02D0206880017DD5DE
:10273000386820F080603860FFF7BCFD054610E087
:10274000DAF80010744A21F4F81110400143CAF875
:10275000001034E7FFF7AEFD401B642801D90320C9
:10276000F1E638680001F5D420786C49C00711D033
:10277000606B78B90868C0F301400A68C2F303626D
:1027800063689B0143EA004040EA0260227A40EA23
:10279000027008602068020303D5E26BB2F5801F67
:1027A00005D0C0021CD5206CB0F5800F18D1086888
:1027B000C0F301400A68C2F3027263689B0143EAF6
:1027C0000040237B40EA036040EA02700860D8F8CA
:1027D0000000626A20F01F00521E1043C8F800007B
:1027E0002068C0010FD50868C0F303600A68C2F30F
:1027F00002726368258A9B0143EA054343EA00604D
:1028000040EA02700860206880010BD56068228A67
:10281000800140EA0240227B40EA0260227A40EADC
:1028200002700860386840F0806000E00EE03860B8
:10283000FFF740FD054606E0FFF73CFD401B64281E
:1028400001D903207FE638680001F5D5012E5AD161
:10285000386820F080503860FFF72CFD054606E010
:10286000FFF728FD401B642801D903206BE6386878
:10287000C0438000F4D520682949020301D5E26BEA
:102880001AB1C0021BD5206CC8B90868C0F301405A
:102890000A68C2F3027263699B0143EA0040237E27
:1028A00040EA036040EA02700860D8F8000020F4B3
:1028B000F852A06A401E42EA0020C8F800002068D2
:1028C000800212D5E06F48450FD10868C0F303605D
:1028D0000A68C2F302726369258C9B0143EA0543CF
:1028E00043EA006040EA027008602078000727D5BC
:1028F0000868C0F303600A68C2F3014263699B0180
:1029000043EA02420EE02EE0083802408C380240D2
:102910000070004090380240FFFCFF0F84380240F6
:102920008838024042EA0060227F40EA0270086074
:10293000D8F80000E16A20F440300843C8F80000ED
:10294000386840F080503860FFF7B4FC044606E079
:10295000FFF7B0FC001B642801D90320F3E53868B9
:10296000C0438000F4D40020EDE500002DE9F047DD
:1029700004460D46002C17D0DFF83481D8F800004B
:1029800000F00F00A84211D2D8F8000020F00F008C
:102990002843C8F80000D8F8000000F00F00A84253
:1029A00004D00120BDE8F0870120FBE72068414EFC
:1029B000810712D5400703D5306840F4E0503060FD
:1029C0002078000703D5306840F4604030603068FC
:1029D000A16820F0F000084330602078C0072ED0B6
:1029E000344960680839012806D0022809D00968EE
:1029F00089070BD40120D5E70968890306D4012093
:102A0000D0E70968890101D40120CBE7316821F0C2
:102A1000030101433160FFF74DFC074641F288395D
:102A200006E0FFF747FCC01B484501D90320B9E782
:102A30003068616800F00C00B0EB810FF1D1D8F87C
:102A4000000000F00F00A8420ED9D8F8000020F0D6
:102A50000F002843C8F80000D8F8000000F00F006D
:102A6000A84201D001209DE72078400705D53068B5
:102A7000E16820F4E050084330602078000706D574
:102A80003068216920F4604040EAC100306000F005
:102A90005DF83168084AC1F30311515CC840074929
:102AA000086007480068FFF71FFC00207AE7000075
:102AB000003C02400838024020BD00080C00002005
:102AC000040000200F2202600B4A136803F0030386
:102AD0004360136803F0F0038360136803F4E0536A
:102AE000C360126802F46042D208026103480068C1
:102AF00000F00F000860704708380240003C0240B8
:102B000001480068704700000C00002000B5FFF786
:102B1000F7FF04490968044AC1F38221515CC840A7
:102B200000BD00000838024030BD000800B5FFF7C6
:102B3000E7FF04490968044AC1F34231515CC840C7
:102B400000BD00000838024030BD000810B517482D
:102B5000006810F00C01164816D04310042912D05A
:102B6000082911D1114C241F216801F03F0221686E
:102B700049020AD52068C0F38810A0FB0301002396
:102B8000FDF7A2FB09E0184610BD21680023C1F340
:102B90008811A1FB0001FDF797FB2168C1F30141FA
:102BA000491C4900B0FBF1F010BD0000083802409C
:102BB0000024F4002DE9F84F04464FF00008002CE3
:102BC00015D02078DFF80494A9F10407C007A7F115
:102BD000040560D0D9F80000C0F3810001280CD0B2
:102BE000D9F80000C0F38100022803D00CE00120D6
:102BF000BDE8F88F3868400206D5286880034AD5BA
:102C0000606870BB0120F3E76068B0F5803F11D0C9
:102C1000A8B1B0F5A02F1BD0286820F48030286020
:102C2000286820F480202860606830B3FFF742FBFA
:102C300006461EE0286840F480302860F4E72868E3
:102C400020F480302860286820F480202860EBE79A
:102C5000286840F480202860286840F4803028608C
:102C6000E2E718E0FFF726FB801B642801D9032068
:102C7000BEE728688003F5D50DE0FFF71BFB06468D
:102C800006E0FFF717FB801B642801D90320AFE79C
:102C900028688003F5D4207880074BD5D9F8000048
:102CA00010F00C0F08D0D9F80000C0F38100022802
:102CB00012D1386840020FD42868800704D5E06834
:102CC000012801D0012093E72868216920F0F8004D
:102CD00040EAC10028602DE0E068C8B1286840F0F3
:102CE00001002860FFF7E6FA064606E0FFF7E2FA81
:102CF000801B022801D903207AE728688007F5D5D0
:102D00002868216920F0F80040EAC100286011E03D
:102D1000286820F001002860FFF7CCFA064606E09C
:102D2000FFF7C8FA801B022801D9032060E7286852
:102D30008007F5D42078000730D5DFF890A26069CD
:102D40000AF16C0AA8B1DAF8000040F00100CAF8F4
:102D50000000FFF7AFFA064606E0FFF7ABFA801B6C
:102D6000022801D9032043E7DAF800008007F4D5F0
:102D700014E0DAF8000020F00100CAF80000FFF7C4
:102D800099FA064606E0FFF795FA801B022801D95A
:102D900003202DE7DAF800008007F4D420784007FC
:102DA00075D5DFF828A20AF1380ADAF80000C00069
:102DB0000CD4DAF8000040F08050CAF80000DAF8CD
:102DC000000000F0805000904FF00108DFF800B2E2
:102DD000DBF80000C00514D4DBF8000040F480707C
:102DE000CBF80000FFF766FA064606E0FFF762FA46
:102DF000801B642801D90320FAE6DBF80000C00537
:102E0000F4D5DFF8C8B1A0680BF1680B012814D025
:102E1000D0B1052825D0DBF8000020F00100CBF868
:102E20000000DBF8000020F00400CBF80000A068F0
:102E300070B3FFF73FFA06462BE0DBF8000040F0E6
:102E40000100CBF80000F2E7DBF8000020F0010001
:102E5000CBF80000DBF8000020F00400CBF8000005
:102E6000E5E7DBF8000040F00400CBF80000DBF8F9
:102E7000000040F00100CBF80000D8E7FFF71AFA95
:102E8000811B41F28830814203D90320B0E61FE064
:102E900004E0DBF800008007F0D510E0FFF70AFA45
:102EA000064608E0FFF706FA811B41F288308142AE
:102EB00001D903209CE6DBF800008007F2D4B8F1CA
:102EC000010F05D1DAF8000020F08050CAF80000A8
:102ED000A169E9B3D9F800004FF0FF38C0F38100D1
:102EE00002284CD0022907D0286820F08070286082
:102EF000FFF7E0F904463EE0286820F08070286083
:102F0000FFF7D8F9064606E0FFF7D4F9801B022840
:102F100001D903206CE628688001F5D4D4E90701C3
:102F2000A26A0843616A08EB5202890141EA024140
:102F3000084394F82C1040EA016040F000503860DB
:102F4000286840F080702860FFF7B4F9044607E075
:102F50003AE0FFF7AFF9001B022801D9032047E64A
:102F600028688001F5D52FE0FFF7A4F9001B02289F
:102F700001D903203CE628688001F5D424E03868B4
:102F800001291FD0E26900F4800191421AD1226A1E
:102F900000F03F01914215D1626A47F6C0710140CD
:102FA000B1EB821F0ED1A26A00F4403108EB52024D
:102FB000B1EB024F06D194F82C1000F07060B0EB2A
:102FC000016F01D0012013E6002011E6083802400D
:102FD00000700040704770477047000030B590F8AF
:102FE0003C20012A3AD0012280F83C20CA68002403
:102FF0008B6822F440721A434B6822F480621A43B1
:103000000B6822F400621A430B6922F480521A43BF
:103010004B6922F400521A438B6A22F480421A430D
:103020000B8B22F4702242EA03420D4D0368AB423F
:1030300002D00C4DAB420CD18D8C22F4700242EACE
:103040000552CD6922F080722A43096A22F000728B
:103050000A435A6480F83C40002030BD022030BD55
:103060000000014000040140F0B590F83C20012A26
:103070003AD0012680F83C60022280F83D200368A7
:103080005A689C68194FDFF868C0BB4201D063459D
:1030900003D122F470054A682A4322F070020D68B9
:1030A00015435D600268BA4213D0B2F1804F10D070
:1030B000104B9A420DD0104B9A420AD00F4B9A42B5
:1030C00007D0624505D00E4B9A4202D00D4B9A4272
:1030D00004D124F080038968194391603C30467024
:1030E000002101700020F0BD0220F0BD0000014071
:1030F000000401400004004000080040000C0040B3
:10310000004001400018004010B50446002C03D0D8
:1031100094F83D0010B107E0012010BD002084F8B4
:103120003C00204600F018F8022084F83D0020689A
:10313000211D03F00DFF01203D34E0726070A0708E
:10314000E07020716071A071E07120726072A072F5
:103150002070002010BD000030B587B00446142157
:1031600002A8FDF709F934492068884212D1334892
:10317000016841F001010160006800F00100019068
:10318000002205211920FFF713F91920FFF702F992
:1031900007B030BD2949091FB0F1804F3BD0284A04
:1031A0009042F5D1086840F002000860086800F01D
:1031B0000200019021481438016841F001010160CA
:1031C000016801F001010191016841F00201016013
:1031D000006800F002000190C020029002240394D5
:1031E000049400250595069402A91648FEF756FF9B
:1031F00003200290039404940595069402A91248B2
:10320000FEF74CFF002205211D20FFF7D1F81D20FD
:10321000FFF7C0F8BCE7086840F0010008600868E4
:1032200000F001000190002205211C20FFF7C0F8EA
:103230001C20FFF7AFF8ABE7000001404438024024
:1032400000040040000002400004024090F83D10DD
:10325000012901D001207047022180F83D1000684B
:103260001549884214D0B0F1804F11D013498842DB
:103270000ED0134988420BD01249884208D0124917
:10328000884205D01149884202D0114988420CD1A8
:103290008168104A114006290BD0B1F5803F08D053
:1032A000016841F00101016003E0016841F00101A2
:1032B0000160002070470000000001400004004051
:1032C00000080040000C00400004014000400140A4
:1032D000001800400700010090F83D10012901D0BE
:1032E00001207047022180F83D100168CA6842F051
:1032F0000102CA6000681549884214D0B0F1804FBD
:1033000011D0134988420ED0124988420BD012497D
:10331000884208D01149884205D01149884202D01C
:10332000104988420CD181680F4A114006290BD000
:10333000B1F5803F08D0016841F00101016003E070
:10334000016841F001010160002070470000014068
:103350000004004000080040000C00400004014050
:1033600000400140001800400700010070B504460D
:10337000002594F83C00012817D0012684F83C6011
:10338000022084F83D0020688268324B1A4022F403
:103390007F4282600868502838D00DDC202853D046
:1033A00005DC90B3102811D14EE0022070BD30280A
:1033B0004AD040280AD13DE0602831D070280CD096
:1033C000B0F5805F03D0B0F5005F12D001253C342A
:1033D000667000202070284670BDCB682068D1E957
:1033E000012103F028FE2068816841F077018160A7
:1033F000EDE7CB682068D1E9012103F01CFE2068CD
:10340000816841F480418160E1E71DE0CA68496854
:10341000206803F04DFF2068502103F016FED6E728
:10342000CA684968206803F095FF2068602103F0AE
:103430000CFECCE7CA684968206803F039FF2068B1
:10344000402103F002FEC2E722680146104603F065
:10345000FCFDBCE788FFFEFF2DE9F05F8346DFF847
:10346000FCA39BF81C00FE4E01270828A6F130049F
:10347000A6F16009A6F1400804F1400534D10AF133
:10348000100100200870A1F1140004F1C0020378BB
:10349000516D106813B1012BF0D14DE0036CC9F8E8
:1034A000003011B3042925D0082928D0016A21F45D
:1034B00020410162506D38B304282BD008282FD04A
:1034C0001068016A41F400510162E448001F07706E
:1034D000B2F8500081B2D06CFEF7D6FE8AF8000038
:1034E00020B3DF4820380760C4E0016A21F00A01F8
:1034F0000162DFE7016A21F0A0010162DAE7016AF7
:1035000021F420610162D5E71068016A41F00201EF
:103510000162DAE71068016A41F020010162D4E734
:103520001068016A41F400710162CEE7CC494FF0A6
:10353000FF30203908609DE0026CC94850380260B5
:10354000E03000F085FDC6489030B0F8500081B200
:10355000C3489030C06CFEF797FEC049091D087043
:103560009AF80010814262D0BD48D9F80010503856
:103570000068884206D24FF6FF72511A491C08446F
:10358000206001E0401A2060B44A0832107850B33D
:103590000020C8F80000B2481C22291D1030FCF79A
:1035A000C4FE2068E8610020216855F820201144FD
:1035B0002160401CC0B20828F6D32068C008C8F8B3
:1035C0000000A7491039A1F11002086812681044E0
:1035D000086040F6B832904220DB3068401C306012
:1035E0000020086023E09D4923680C31087845F8E5
:1035F0002030401CC0B208700828E2D100202168A9
:1036000055F8203019442160401CC0B20828F6D378
:103610002068C008C8F800001770D2E740F6B8323A
:10362000D04204DC3068401E3060002008608B49C6
:103630000020091F08708A489030416D00F044FC5A
:1036400087489030406DD0B18549903104281ED014
:10365000082822D00868016A21F4204101628049CB
:103660009031486DF8B1042821D0082823D008688B
:10367000016A01629BF81C00042820D026E17848EA
:1036800090300068016A21F00A010162E7E70868EA
:10369000016A21F0A0010162E1E70868016A21F4F2
:1036A00020610162DBE70868016A0162E2E70868FD
:1036B000016A0162DEE70868016A0162DAE76749C8
:1036C000002010314870A1F11400654A4078EC32B6
:1036D00010B10128D2D14FE01068C16BC9F80410B5
:1036E000516D11B3042925D0082928D0016A21F48D
:1036F00020410162506D38B304282BD008282FD008
:103700001068016A41F4005101625448001F47707B
:10371000B2F8500081B2D06CFEF7B6FD8AF8010015
:1037200020B34F4820384760D0E0016A21F00A01F9
:103730000162DFE7016A21F0A0010162DAE7016AB4
:1037400021F420610162D5E71068016A41F00201AD
:103750000162DAE71068016A41F020010162D4E7F2
:103760001068016A41F400710162CEE73C494FF0F4
:10377000FF3020394860A9E03948EC300068C16B5F
:1037800037485038416000F59E70416D00F060FC94
:103790003348EC30B0F8500081B23148EC30C06CA6
:1037A000FEF772FD2D49091D48709AF801108142FB
:1037B0006ED02B48D9F8041050384068884206D2A1
:1037C0004FF6FF72511A491C0844606001E0401A2C
:1037D0006060224B0833587858B30020C8F80400C2
:1037E0001F491C223431081FFCF79FFD6068E86305
:1037F0000020616805EB8002126A11446160401C80
:10380000C0B20828F5D36068C008C8F8040014499D
:103810001039A1F11002486852681044486040F61F
:10382000B83290422BDB7068401C7060002048600A
:103830002EE0DFF828C061680CF10C0C9CF8010048
:1038400005EB80021162401CC0B28CF80100082810
:10385000DDD10020616805EB800203E074000020E8
:10386000480F0120126A11446160401CC0B2082850
:10387000F0D36068C008C8F804005F70C7E740F67E
:10388000B832D04204DC7068401E7060002048608E
:10389000F74900204870F748416D00F015FBF548E6
:1038A000406DC0B1F34904281CD0082820D0086816
:1038B000016A21F420410162EE49486DF0B104280B
:1038C00020D0082822D00868016A01629BF81C00F9
:1038D00001281FD020E1E7480068016A21F00A01B1
:1038E0000162E9E70868016A21F0A0010162E3E7EB
:1038F0000868016A21F420610162DDE70868016A55
:103900000162E3E70868016A0162DFE70868016AAB
:103910000162DBE7D649002014318870D448D54ACB
:103920005C32807810B1012826D14CE01068416BE0
:10393000C9F80810516D01B3042923D0082926D0F5
:10394000016A21F420410162506D28B3042829D076
:1039500008282DD01068016A41F400510162C44862
:103960008770B2F8500081B2D06CFEF78DFC8AF8F7
:10397000020018B3C0488760CEE0016A21F00A0156
:103980000162E1E7016A21F0A0010162DCE7016A5E
:1039900021F420610162D7E71068016A41F0020159
:1039A0000162DCE71068016A41F020010162D6E79C
:1039B0001068016A41F400710162D0E7AE494FF02E
:1039C000FF308860A8E0AB485C300068416BAA48D3
:1039D0003038816000F5CC70416D00F039FBA548AE
:1039E0005C30B0F8500081B2A2485C30C06CFEF789
:1039F0004BFC9F49083188709AF80210814269D0C7
:103A00009D48D9F8081030388068884206D24FF6B1
:103A1000FF72511A491C0844A06001E0401AA060DE
:103A2000934B0C33987850B30020C8F808009249A3
:103A30001C227431081FFCF778FCA068E8650020A0
:103A4000A16805EB8002126C1144A160401CC0B259
:103A50000828F5D3A068C008C8F808008649864A37
:103A60001031886892681044886040F6B8329042FD
:103A700026DBB068401CB060002088602AE0DFF8D8
:103A8000F0C1A1680CF1100C9CF8020005EB80025B
:103A90001164401CC0B28CF802000828DED100205E
:103AA000A16805EB8002126C1144A160401CC0B2F9
:103AB0000828F5D3A068C008C8F808009F70CDE7B3
:103AC0000A6840F6B830C24204DCB068401EB060FC
:103AD0000020886066490020887066485C30416D2F
:103AE00000F0F2F963485C30406DE8B361495C3145
:103AF000042857D008285BD00868016A21F42041C7
:103B000001625C495C31486D78B304285AD00828BA
:103B10005CD00868016A01629BF81C0002287DD114
:103B200053484FF0000B143080F803B01438514A5A
:103B3000C078B832A8B3012874D110460068816BF0
:103B4000A2F5FA70C1601046416D00F081FA494853
:103B5000B830B0F8500081B24648B830C06CFEF7BB
:103B600093FB4349083101E013E027E0C8709AF85D
:103B70000310814273D04048D9F80C103038C06827
:103B800088426DD24FF6FF72511A491C0844E0601A
:103B90007BE038485C300068016A21F00A0101626C
:103BA000AFE717E00868016A21F0A0010162A8E709
:103BB0000868016A21F420610162A2E70868016ACD
:103BC0000162A9E70868016A0162A5E70868016A5D
:103BD0000162A1E71068816BC9F80C10516D19B32F
:103BE000042926D0082929D0016A21F42041016244
:103BF000506D40B304282CD0082832D01068016AD8
:103C000041F4005101621A48C770B2F8500081B205
:103C1000D06CFEF739FB8AF8030000E002E030B315
:103C20001548C760BDE8F09F016A21F00A010162F2
:103C3000DEE7016A21F0A0010162D9E7016A21F4FF
:103C400020610162D4E71068016A41F0020101625B
:103C5000D9E71068016A41F020010162D3E768E00A
:103C600011E01068016A41F400710162CBE705E0E0
:103C70007000002034100120280F01204B494FF024
:103C8000FF30C860CEE7401AE0604949C87848B3C1
:103C9000C8F80CB01C2245499431081FFCF745FBBD
:103CA000E068E8670020E16805EB8002126E1144CD
:103CB000E160401CC0B20828F5D3E068C008C8F82D
:103CC0000C003A49394A1031C868D2681044C860BB
:103CD00040F6B832904223DBF068401CF060C1F837
:103CE0000CB026E0324AE368121DD07805EB800C58
:103CF000CCF86030401CC0B2D0700828E1D1002060
:103D0000E26805EB80031B6E1A44E260401CC0B2FF
:103D10000828F5D3E068C008C8F80C00CF70D0E7D9
:103D200040F6B832D04204DCF068401EF060C1F8C2
:103D30000CB01F480C3880F803B01E4C2046616D53
:103D400000F0C2F8606D90B1042816D008281AD08F
:103D50002068016A21F420410162606DC8B1042825
:103D60001BD008281DD02068016A01625AE720682C
:103D7000016A21F00A010162EFE72068016A21F07F
:103D8000A0010162E9E72068016A21F42061016273
:103D9000E3E72068016A016244E72068016A016282
:103DA00040E72068016A01623CE70000280F01201B
:103DB0007C000020EC10012070B505460C46002662
:103DC00095F83C0001280FD0012085F83C006AB12D
:103DD000042A1CD0082A2CD00C2A3BD00126002013
:103DE00085F83C00304670BD022070BDE36828684D
:103DF000D4E9001203F06EFA2868816921F00C0101
:103E0000816128688169A26811438161E7E7E368FD
:103E10002868D4E9001203F0AFFA2868816921F418
:103E20004061816128688169A26841EA022181615B
:103E3000D5E7E3682868D4E9001203F0B8FA2868E7
:103E4000C16921F00C01C1612868C169A2681143F0
:103E5000C161C4E7E3682868D4E9001203F0C0FA3E
:103E60002868C16921F44061C1612868C169A268FC
:103E700041EA0221C161B2E710B50446002C03D02B
:103E800094F83D0010B107E0012010BD002084F837
:103E90003C00204600F017F8022084F83D0020681E
:103EA000211D03F055F801203D34E0726070A070D0
:103EB000E07020716071A071E07120726072A07278
:103EC0002070002010BD704730B504460025002941
:103ED00013D0042914D0082915D00C2916D0102984
:103EE00017D094F84300B9B1042918D0082919D083
:103EF00094F8472001281AD117E094F83E00F2E721
:103F000094F83F00EFE794F84000ECE794F84100A4
:103F1000E9E794F84200E6E794F84420EAE794F8E9
:103F20004520E7E794F84620E4E7012A01D0012084
:103F300030BD0220D1B104291BD008291CD00C2986
:103F40001DD010291ED084F84300F1B104291FD0E0
:103F5000082920D084F8470001B3042924D0082977
:103F600028D00C292CD0012585B35EE084F83E00D2
:103F7000EBE784F83F00E8E784F84000E5E784F8E1
:103F80004100E2E784F84200DFE784F84400E3E719
:103F900084F84500E0E784F84600DDE72068C26861
:103FA00042F00202C260DFE72068C26842F0040209
:103FB000C260D9E72068C26842F00802C260D3E755
:103FC0002068C26842F01002C260CDE7FFE72068B7
:103FD000012203F023F816492068884214D0B0F17A
:103FE000804F11D0134988420ED0134988420BD01C
:103FF0001249884208D01249884205D011498842A6
:1040000002D0114988420CD18168104A114006291A
:104010000BD0B1F5803F08D0016841F0010101608B
:1040200003E0016841F001010160284630BD000055
:10403000000001400004004000080040000C004067
:10404000000401400040014000180040070001004A
:1040500070B504460D460026002D08D0042D0CD066
:10406000082D10D00C2D14D00126C6B13DE02068DB
:10407000C16821F00201C160F7E72068C16821F042
:104080000401C160F1E72068C16821F00801C16046
:10409000EBE72068C16821F01001C160E5E7206806
:1040A0000022294602F0BAFF2068016A41F211128B
:1040B000114207D1016A9210114203D1016821F027
:1040C00001010160012095B1042D13D0082D14D0F9
:1040D0000C2D15D0102D16D084F84300B5B1042D49
:1040E00017D0082D18D084F84700304670BD84F8EA
:1040F0003E00F3E784F83F00F0E784F84000EDE786
:1041000084F84100EAE784F84200E7E784F84400D5
:10411000EBE784F84500E8E784F84600E5E770B58A
:104120000446206801694FF00005C943890716D489
:10413000C168C943890712D4E91E016101202077B3
:1041400020688069800703D02046FFF785F905E0E5
:10415000204600F0EDF8204600F0AEF92577206803
:104160000169C943490718D4C168C943490714D430
:104170006FF004010161022020772068806910F44B
:10418000407F03D02046FFF767F905E0204600F0A6
:10419000CFF8204600F090F9257720680169C943DF
:1041A000090717D4C168C943090713D46FF0080180
:1041B0000161042020772068C069800703D0204671
:1041C000FFF74AF905E0204600F0B2F8204600F07B
:1041D00073F9257720680169C943C90618D4C168F5
:1041E000C943C90614D46FF010010161082020777B
:1041F0002068C06910F4407F03D02046FFF72CF9F7
:1042000005E0204600F094F8204600F055F92577A7
:1042100020680169C943C90708D1C168C943C907F2
:1042200004D1891E0161204600F076FA20680169F8
:10423000C943090609D4C168C943090605D46FF00A
:10424000800101612046FEF7C6FE20680169C9436E
:10425000C90509D4C168C943090605D46FF4807142
:1042600001612046FEF7B6FE20680169C943490690
:1042700009D4C168C943490605D46FF04001016102
:10428000204600F053FA20680169C94389060BD41F
:10429000C168C943890607D46FF020010161204637
:1042A000BDE87040FEF798BE70BD000030B587B025
:1042B0000446142102A8FCF75FF8194D002220687B
:1042C000022318490124A84214D1086840F01000C4
:1042D0000860086800F0100001904FF4D44002908C
:1042E000039304920592069402A90F48FDF7D6FEA7
:1042F00007B030BDB0F1804FFAD1086840F001003E
:104300000860086800F0010001900F2002900393FC
:1043100004920592069402A90448FDF7BFFEE7E760
:10432000000001403038024000100240000002400E
:10433000704770B504460D46002694F83C000128ED
:104340000BD0012084F83C000C2A4FD007DC82B14E
:10435000042A22D0082A06D134E0022070BD102A97
:1043600059D0142A6BD00126002084F83C00304636
:1043700070BD2068294602F071FE2068816941F015
:10438000080181612068816921F004018161206850
:1043900081692A6911438161E6E72068294602F0B4
:1043A00093FE2068816941F4006181612068816920
:1043B00021F480618161206881692A6941EA0221D2
:1043C0008161D1E72068294602F0BAFE2068C16900
:1043D00041F00801C1612068C16921F00401C16197
:1043E0002068C1692A691143C161BDE72068294677
:1043F00002F0E0FE2068C16941F40061C1612068FB
:10440000C16921F48061C1612068C1692A6941EAFA
:104410000221C161A8E72068294602F0F7FE206862
:10442000416D41F0080141652068416D21F00401B2
:1044300041652068416D2A691143416594E7206810
:10444000294602F00BFF2068416D41F4006141658F
:104450002068416D21F4806141652068416D2A69C1
:1044600041EA022141657FE710B50446002C03D0E4
:1044700094F83D0010B107E0012010BD002084F841
:104480003C00204600F017F8022084F83D00206828
:10449000211D02F05DFD01203D34E0726070A070CE
:1044A000E07020716071A071E07120726072A07282
:1044B0002070002010BD70477047000010B5044602
:1044C00000290DD004290ED008290FD00C2910D0B6
:1044D000102911D094F84300012810D0012010BDFC
:1044E00094F83E00F8E794F83F00F5E794F84000B0
:1044F000F2E794F84100EFE794F84200ECE702207D
:10450000E1B304293ED008293FD00C2940D010291E
:1045100041D084F843000122206802F07FFD224947
:104520002068224A884201D0904203D1436C43F470
:10453000004343642068884213D0B0F1804F10D00C
:104540001B4988420DD01B4988420AD01A4988422B
:1045500007D0904205D01949884202D018498842B4
:104560001CD18168174A114006291BD0B1F5803F44
:1045700018D0016841F00101016013E0FFE784F801
:104580003E00C8E784F83F00C5E784F84000C2E772
:1045900084F84100BFE784F84200BCE7016841F0BD
:1045A00001010160002010BD000001400004014035
:1045B0000004004000080040000C004000400140A2
:1045C000001800400700010030B50446002500290E
:1045D0000DD004290ED008290FD00C2910D0102995
:1045E00011D094F84300012810D0012030BD94F878
:1045F0003E00F8E794F83F00F5E794F84000F2E752
:1046000094F84100EFE794F84200ECE7022099B1FA
:10461000042914D0082915D00C2916D0102917D038
:1046200084F84300B9B104291BD008291FD00C29F4
:1046300023D001253DB35DE084F83E00F2E784F825
:104640003F00EFE784F84000ECE784F84100E9E739
:1046500084F84200E6E72068C26842F00202C260C5
:10466000E8E72068C26842F00402C260E2E720681E
:10467000C26842F00802C260DCE72068C26842F00B
:104680001002C260D6E72068012202F0C7FC1A4A75
:1046900020681A49904201D0884203D1436C43F408
:1046A000004343642068904213D0B0F1804F10D093
:1046B000134A90420DD0134A90420AD0124A9042B7
:1046C00007D0884205D01149884202D0104988425B
:1046D0000CD181680F4A114006290BD0B1F5803FFB
:1046E00008D0016841F00101016003E0016841F078
:1046F00001010160284630BD000001400004014076
:104700000004004000080040000C00400040014050
:10471000001800400700010000680349884201D1E9
:10472000FDF7CEBD70470000002000407047704785
:1047300070B50446A06FE66F216889684FF01005D8
:10474000090618D5212816D12068083050E8001F26
:1047500021F0800140E80012002AF5D1E06E38B166
:10476000FDF7B2FA20B1E06EFDF707FB202809D073
:10477000204603F01BFC2068806840061DD5222ED1
:1047800004D01AE0C4F88050032070BD20680830BF
:1047900050E8001F21F0400140E80012002AF5D146
:1047A000206F38B1FDF790FA20B1206FFDF7E5FAE0
:1047B000202804D0204603F0C3FB002070BDC4F8BD
:1047C0008050032070BD70470146886FC96F084351
:1047D000704700002DE9F04104462268D069116855
:1047E000936840F60F0500EA0506002E0AD18506FB
:1047F00008D58D0606D5616E00297DD02046BDE81E
:10480000F04108470025002E77D0934F03F00106B2
:104810000F40374371D0C70709D0CF0507D501270F
:104820001762D4F8802042F00102C4F88020820789
:104830000AD5DA0708D0276802223A62D4F8802025
:1048400042F00402C4F8802042070AD5DA0708D0F3
:10485000236804221A62D4F8802042F00202C4F8CD
:10486000802002070CD501F02002324308D02368D3
:1048700008221A62D4F8802042F00802C4F880208E
:1048800002050BD54A0109D523684FF400621A626C
:10489000D4F8802042F02002C4F88020D4F8802090
:1048A000002A35D0800605D5880603D5616E09B18A
:1048B00020468847D4F8800021688968490602D4D8
:1048C00010F0280F2AD0204603F03AFB20688068B9
:1048D00040061FD52068083050E8001F21F0400135
:1048E00040E80012002AF5D1206F70B15B490165E4
:1048F000206FFDF730FA01E00AE015E0002807D04C
:10490000206F016DBDE8F04108472046FFF75BFFCF
:10491000BDE8F0812046FFF756FFF9E72046FFF794
:1049200052FFC4F88050F3E7236E012B7FD1C306FA
:104930007DD5CB067BD510201062206880684FF0B3
:104940002003400644D5216F0868406880B20028E3
:10495000DED0B4F858208242DAD9A4F85A00C869E7
:10496000B0F5807F2AD0206850E8001F21F48071C4
:1049700040E80012002AF6D12068083050E8001FF5
:1049800021F0010140E80012002AF5D1206808302A
:1049900050E8001F21F0400140E80012002AF5D144
:1049A000E3672566206850E8001F21F0100140E809
:1049B0000012002AF6D1206FFDF786F9B4F85800EE
:1049C000B4F85A10401A81B22046FFF7B0FE9FE7B4
:1049D00034F8580F6188401A81B26088583C00282A
:1049E00096D0002994D0206850E8002F22F49072CD
:1049F00040E80026002EF6D12068083050E8002F4D
:104A000022F0010240E80026002EF5D1E36725667A
:104A10006566206850E8002F22F0100240E800236D
:104A2000002BF6D12046FFF782FE71E7FFE7020672
:104A300008D50A0606D5A16E0029C8D02046BDE8D3
:104A4000F04108474006C2D54806C0D52046BDE81B
:104A5000F04103F09ABA000020010004457E0008EE
:104A600010B50446002C02D0A06F10B107E0012061
:104A700010BD002084F87400204600F027F82420A0
:104A8000A0672068016821F001010160204603F061
:104A900035FB012818D0606A10B1204603F04EF9AA
:104AA0002068416821F4904141602068816821F0CC
:104AB0002A0181602068016841F0010101602046FF
:104AC000BDE8104003F09EB9012010BD2DE9F04F64
:104AD00087B00546142102A8FBF74EFC9C48022330
:104AE000DFF868C2002629681038994C03229F0617
:104AF0004FF0080961454FF4406B4FF480683AD19C
:104B0000216841F400212160216801F40021019114
:104B1000016841F004010160006800F004000190A8
:104B2000CDF808B0039304960592CDF8189002A929
:104B30008848FDF7B3FA894C874820606760A66013
:104B4000E660C4F810806661A661E661266266626E
:104B50002046FDF7FDF908B1FDF738F82C67A5638D
:104B6000002205213420FDF723FC3420FDF712FC40
:104B700007B0BDE8F08FDFF8E8C1614524D12168B6
:104B800041F080412160216801F08041019101687C
:104B900041F010010160006800F0100001904FF436
:104BA000C0700290039304960592CDF8189002A964
:104BB0006C48FDF773FA002205215220FDF7F8FB3F
:104BC0005220FDF7E7FBD3E7DFF89CE14FF0070A3F
:104BD000DFF87CC171450CF1040C27D1DCF8001022
:104BE00041F01001CCF80010DCF8001001F01001C9
:104BF0000191016841F001010160006800F00100CD
:104C000001904FF4C0600290039304960592CDF892
:104C100018A002A95548FDF741FA002205212520D8
:104C2000FDF7C6FB2520FDF7B5FBA1E7DFF840E166
:104C300071453AD1216841F400312160216801F4C5
:104C400000310191016841F008010160006800F045
:104C50000800019060200290039304960592CDF81D
:104C600018A002A94348FDF719FA3B483B4C4830CD
:104C7000603420606760A660E660C4F810806661FA
:104C8000A661E661266266622046FDF761F908B119
:104C9000FCF79CFF2C67A563002226201146FDF738
:104CA00087FB2620FDF776FB62E7334DA94223D12F
:104CB000216841F480212160216801F48021019163
:104CC000016841F002010160006800F002000190FB
:104CD000CDF808B0039304960592CDF818A002A968
:104CE0002648FDF7DBF9002205212720FDF760FBB0
:104CF0002720FDF74FFB3BE7214CA14295D1DCF883
:104D0000001041F02001CCF80010DCF8001001F098
:104D100020010191016841F004010160006800F088
:104D200004000190C0200290039304960592CDF8F0
:104D3000189002A90748FDF7B1F900220521472084
:104D4000FDF736FB4720FDF725FB11E7004C00403F
:104D5000403802400008024040600240EC1C002045
:104D600000780040001002400010014000000240A6
:104D700000440040000C0240004800400004024093
:104D80000014014030B4C36F202B02D0022030BC8D
:104D90007047C9B1C2B190F87430012B16D001230D
:104DA00080F874300023036603685B681B0208D533
:104DB000036853E8004F44F0806443E80045002D49
:104DC000F6D130BC03F0F4BA0120E0E70220DEE7C0
:104DD00030B4C36F202B02D0022030BC7047C9B161
:104DE000C2B190F87430012B16D0012380F87430D2
:104DF0000023036603685B681B0208D5036853E859
:104E0000004F44F0806443E80045002DF6D130BCEB
:104E100003F020BB0120E0E70220DEE730B50068A8
:104E2000124988420CD1124A5088010408D4114614
:104E30004FF000034404097807D50A2901D05380B4
:104E400030BD40F40040508030BD0D290AD0094DDE
:104E5000C0F30D042955401C80B25080C728F3D9F7
:104E6000538030BD40F48040508030BD0010014080
:104E7000CC000020704E022070477047FEE7000013
:104E800070B5114D4FF48064002221462846FDF78D
:104E90000AFA012001F00AFC002228466100FDF711
:104EA00002FA022003F06CFF012221462846FDF79A
:104EB000FAF9022003F064FF21462846BDE870405D
:104EC0000022FDF7F0B900000004024010B586B0E2
:104ED0001148016841F002010160006800F0020021
:104EE00000904FF440600190112002900120039047
:104EF00002200490094C01A92046FDF7CFF80122B9
:104F00002046D102FDF7CFF9012220469102FDF79C
:104F1000CAF906B010BD000030380240000402405B
:104F200070B5114D4FF48064002221462846FDF7EC
:104F3000BAF9012001F0BAFB01222846D102FDF79F
:104F4000B2F9022003F01CFF012221462846FDF79A
:104F5000AAF9022003F014FF21462846BDE870405C
:104F60000022FDF7A0B90000000402402DE9F0473F
:104F700080460024002001F099FB0025164F4FF4D5
:104F800080664FF40069314600223846FDF78BF900
:104F9000022003F0F5FE012231463846FDF783F981
:104FA0006006040E49463846FDF76EF908B1641CE8
:104FB000E4B2022003F0E4FE6D1CEDB2082DE2D352
:104FC000B8F1000F04D0FFF75BFF2046BDE8F08783
:104FD000FFF7A6FFF9E70000000402402DE9F041C9
:104FE0000546012001F062FB194F4FF48066002254
:104FF00031463846FDF757F900244FF4006828067B
:1050000005D5012241463846FDF74DF904E000225E
:1050100041463846FDF747F96806050E022003F0C1
:10502000AFFE012231463846FDF73DF9022003F07C
:10503000A7FE002231463846FDF735F9022003F07D
:105040009FFE641CE4B2082CD9D3BDE8F0810000B7
:105050000004024070B5012001F028FB01220F4D31
:10506000D40228462146FDF71EF901222846960261
:105070003146FDF718F9042003F082FE0022214694
:105080002846FDF710F9042003F07AFE3146284641
:10509000BDE870400022FDF706B9000000040240A0
:1050A00070B5012001F002FB0F4D4FF48064002227
:1050B00021462846FDF7F7F86600284600223146CB
:1050C000FDF7F1F8042003F05BFE0122214628469B
:1050D000FDF7E9F8012231462846FDF7E4F8BDE87E
:1050E0007040042003F04CBE000402402DE9F04162
:1050F0000024002001F0DAFA0122144DD6022846DD
:105100003146FDF7D0F8012003F03AFE012228468F
:1051100097023946FDF7C7F8012003F031FE08E099
:10512000641CE4B2FA2C04D9FFF7BAFF0120BDE8F1
:10513000F08131462846FDF7A7F80028F0D100227B
:1051400039462846FDF7AFF80020F0E7000402409A
:105150002DE9F043DFED2E1AB0EE610A002600259E
:10516000002400234FF0010813E00768C44608FA42
:1051700003F917EA090F0AD06D1CEDB203F101091A
:105180000CFA09FC17EA0C0F01D1761CF6B25B1C75
:10519000DBB28B42E9D346720572D3B21D4E8F1A31
:1051A00016E00268A1EB030CACF1010C22FA0CF240
:1051B00002F00102144464B200EE902A06EB83026E
:1051C000F8EE600A92ED001A00EE810A5B1CDBB279
:1051D0009F42E6DC104A032C04DBC2ED011A0020DA
:1051E000BDE8F0832DB100202CB1002108430AD185
:1051F00003E00120F8E70121F8E700EE904AF8EE1D
:10520000E00AC0EE201AC2ED011A0020E8E7000013
:105210000000000070BD0008185202200848007904
:1052200014280BD01B2809D0232807D03C2805D0F0
:10523000442803D04B2801D000207047012070473C
:10524000B451022008B50D48016841F40011016015
:10525000006800F400100090002205210D20FDF7E9
:10526000A7F80D20FDF796F8002205211020FDF784
:105270009FF8BDE808401020FDF78CB83038024098
:10528000704700002DE9F04F87B0142102A8FBF70A
:1052900073F86A48016841F010010160016801F08B
:1052A00010010191016841F004010160016801F001
:1052B00004010191016841F080010160016801F081
:1052C00080010191016841F001010160016801F074
:1052D00001010191016841F002010160016801F0E2
:1052E00002010191016841F008010160006800F0CD
:1052F00008000190DFF848B1002203215846FCF76E
:10530000D2FF4FF40056584600223146FCF7CBFF3F
:105310004FF4605A4B4801225146FCF7C4FF00226B
:1053200058463021FCF7BFFF7C20029000250395F2
:1053300002240494444802A9FCF7B0FE4FF480799B
:10534000CDF808900395049402A93E48FCF7A6FE08
:10535000200202900395049402A95846FCF79EFE91
:1053600002960395049402A93848FCF797FEF01CB6
:1053700002900127039704940326059602A9584634
:10538000FCF78CFE4FF02008CDF8088003950494BC
:1053900002A95846FCF782FE10200290039704945D
:1053A000059602A95846FCF779FE4EF2F8000290E5
:1053B0000395049402A92548FCF770FE40F29F7003
:1053C00002900395049402A91E48FCF767FECDF8ED
:1053D00008A003970494059602A91A48FCF75EFEFC
:1053E0003002029003950494059602A91748FCF731
:1053F00055FE029603950494059602A91248FCF7FF
:105400004DFE4FF4C15002900395049402A9104E32
:105410003046FCF743FECDF808900395049402A9AA
:105420003046FCF73BFECDF808800395049402A9B2
:105430000548FCF733FE07B0BDE8F08F3038024076
:1054400000080240000C024000100240000402402C
:105450000000024010B59AB00024169417941894D6
:1054600019941394149415941C210CA8FAF784FF32
:105470002C2101A8FAF780FF374836490160012145
:105480004160846042F62F21C160046144618461FF
:10549000FDF73AFE08B1FCF799FB4FF480501690E7
:1054A0002D4816A9FDF762FF08B1FCF78FFB2A48CB
:1054B000FEF7DAFF08B1FCF789FB139414941594F6
:1054C00013A92548FDF7D0FD08B1FCF77FFB60204C
:1054D0000C900D940E940F94109411941294002239
:1054E0001D480CA9FEF725FF08B1FCF76FFB1A4811
:1054F00004220CA9FEF71DFF08B1FCF767FB164854
:1055000008220CA9FEF715FF08B1FCF75FFB124853
:105510000C220CA9FEF70DFF08B1FCF757FB019414
:1055200002940394049405944FF400500690079459
:105530000894000309900A940B9401A90648FDF70A
:105540004DFD08B1FCF742FB0348FEF7AFFE1AB071
:1055500010BD000000000140F018002010B58EB012
:1055600000240A940B940C940D94079408940994C5
:105570001C216846FAF700FF29484FF0804101607E
:105580004460846042F62F21C16004618461FDF7AC
:10559000BBFD08B1FCF71AFB4FF480500A9020487D
:1055A0000AA9FDF7E3FE08B1FCF710FB1C48FEF763
:1055B0005BFF08B1FCF70AFB0794099407A9184898
:1055C000FDF752FD08B1FCF701FB6020009001944B
:1055D00002940494002212486946FEF7AAFE08B11C
:1055E000FCF7F4FA0E4804226946FEF7A2FE08B161
:1055F000FCF7ECFA0A4808226946FEF79AFE08B161
:10560000FCF7E4FA06480C226946FEF792FE08B160
:10561000FCF7DCFA0248FEF749FE0EB010BD0000B0
:105620003C19002010B58CB00024089409940A9409
:105630000B940594069407940194029403940494A3
:10564000294828490160D721416084604FF6FF71E5
:10565000C16004618461FDF757FD08B1FCF7B6FA3B
:105660004FF480500890204808A9FDF77FFE08B14C
:10567000FCF7ACFA1C48FEF7FFFB08B1FCF7A6FAF2
:105680000594079405A91848FDF7EEFC08B1FCF74E
:105690009DFA0194012002900394082004900022B6
:1056A000114801A9FEF788FB08B1FCF78FFA0E48F4
:1056B000042201A9FEF780FB08B1FCF787FA0A482B
:1056C000082201A9FEF778FB08B1FCF77FFA06482B
:1056D0000C2201A9FEF770FB002801D0FCF776FA36
:1056E0000CB010BD000400408819002010B50D4812
:1056F0000B4901604FF4E131416000218160C160DC
:1057000001610C2242618161C16101624162FFF766
:10571000A7F9002803D0BDE81040FCF757BA10BD28
:10572000004C0040D419002010B50D480B49016011
:105730004FF41651416000218160C16001610C226B
:1057400042618161C16101624162FFF789F900280C
:1057500003D0BDE81040FCF739BA10BD004400404A
:10576000601B002010B50D480B4901604FF4E1317A
:10577000416000218160C16001610C224261816150
:10578000C16101624162FFF76BF9002803D0BDE8F7
:105790001040FCF71BBA10BD00480040E41B00207D
:1057A000FEE7FEE770B50021104B4FF47A7401EB71
:1057B000410213F83250854202D103EBC2029481B8
:1057C000491CC9B2CC29F2D300210A4A084E155C03
:1057D00008E0325C0A4402EB420203EBC20294810D
:1057E000491CC9B28D42F4D870BD00004C020020A3
:1057F000E5150020841500202DED028B03F07AFBC7
:10580000184C9FED170A84ED020A94ED0A8A164D92
:1058100002E0022005F080FE94ED0A0A30EE480A0C
:10582000B0EEC00A10EE100AA842F2DB002460219C
:10583000204600F099FF322005F06EFE641CE4B2B1
:10584000082CF4D36021092000F08EFF322005F0EF
:1058500063FEFBF73DF8022005F05EFEFBE700006B
:1058600000007A454816002000007042014610B53D
:105870000020084A135C8B4207D1602100F074FFBE
:10588000BDE81040322005F047BE401CC0B20828D9
:10589000F0D310BDB200002005480068016841F057
:1058A0001001016003490A220148FFF76BBA0000AA
:1058B000601B00204C13012070B504460D46FBF719
:1058C000C5FFFFF7C7FBA020FFF788FBFFF70EFC23
:1058D00018B1FFF7E5FB052070BD200AFFF77EFB3E
:1058E000FFF704FC18B1FFF7DBFB002070BDE0B24E
:1058F000FFF774FBFFF7FAFB18B1FFF7D1FB0020AD
:1059000070BDFFF7A7FBA120FFF768FBFFF7EEFBD9
:1059100018B1FFF7C5FB002070BD0020FFF726FB84
:105920002870FFF7BDFB012070BD00002DE9F04F8E
:105930002DED028B87B0FF4F1822391D07F134007F
:10594000FAF7F3FC97ED0F0ADFEDFB0A30EE200AC1
:1059500087ED0F0A10EE100AF849884204D19FED36
:10596000F80A87ED0F0A08E010EE100AF5498842A0
:1059700003D19FEDF50A87ED0F0AF448D7ED0F0A22
:1059800090ED000A03F0C0FFFFF748FCF049F14E2C
:10599000F14A80B10D78022492F84C1992F8480926
:1059A00003F016FB00EB4000182206EBC001381D87
:1059B000FAF7BBFC0FE00D78032492F8501992F827
:1059C0004C0903F005FB00EB4000182206EBC00178
:1059D000381DFAF7AAFCE14EE14B06EB840202F512
:1059E0001042D2F8480943F825006D1CEDB2641C42
:1059F000E4B206EB840000F51040D0F84809FF2817
:105A0000EBD106EB840000F51040D0F8480943F8CC
:105A10002500FAF76DFFC74890ED0F0AD0ED030A95
:105A2000B4EE600AF1EE10FA7ED0002403F0AEFA74
:105A3000C048B0EE408AD0ED030A90ED0F0A03F0A3
:105A4000A5FFC84F38EE000A87ED000A97ED000A5F
:105A5000C54910EE100A9FEDC50A884206DDD7ED54
:105A6000000A30EEC00A87ED000A0CE0D7ED000A0C
:105A7000BF4910EE900A884205D9D7ED000A30EEF2
:105A8000800A87ED000A97ED008A032004F046F8AB
:105A9000B94E4FF4FA7BDFF8DCA2DFF8E0927542F2
:105AA000DFF8DC82CCE0641C03F070FA03F0E8FB62
:105AB00099F80900012841D103F068FAF0EE400A94
:105AC000B0EE480A03F062FFB0EEC00A10EE100A12
:105AD000404533DA5C4531DBD9F8000080072AD035
